:10000000FCFF0220D9050000BD050000C10500006D
:10001000C5050000C9050000CD0500000000000076
:10002000000000000000000000000000D1050000FA
:100030000000000000000000D505000019070000C6
:1000400010B5054C237833B9044B13B10448AFF312
:1000500000800123237010BD5C0000200000000020
:10006000EC18000008B5064B1BB106480649AFF373
:1000700000800648036813B1054B03B1984708BDDB
:1000800000000000EC180000600000205800002074
:1000900000000000154A164B117849B91549187827
:1000A00009780144C9B2197013494FF40010C861AE
:1000B00011780131C9B211701978F02903D80C49AF
:1000C0000978092909D80B4908784042C0B208705C
:1000D000187809780144C9B2197012781B789A42CD
:1000E00003D1054B4FF40012DA617047780000200D
:1000F00001000020000000200080004110B5C4690C
:10010000C4F34004002CFAD1036864F34103036094
:10011000C369DB07FCD4036843F001030360036891
:10012000DC07FCD4C369DB07FCD4C3699C07F9D4A2
:1001300042F0804242F004020260C3695A07FCD4D4
:100140004FF4403343608181C3699B07FCD403684B
:1001500043F00203036010BD037EDB07FCD5816220
:1001600070470000037E5B07FCD5438BD90705D49D
:10017000438B9A0702D4438B5B0702D5024B0122C3
:100180001A70806AC0B270477900002070B50268AA
:10019000938B1907044626D58023082511219583C2
:1001A000937282F80011402182F8051182F804311F
:1001B000114B5868032666F31E705860586966F341
:1001C0001E7058610D4818600D481861586865F335
:1001D0009B30586058686FF30D005860002382F818
:1001E0000411237105E092F80731DB0601D500F018
:1001F000CFFA207970BD00BF940100209400002048
:1002000014010020002303714371064B01608360D9
:100210000B7843F002030B70026893789B07FCD4C1
:10022000704700BF8D010000414A936943F001030C
:100230009361404B93F8581041F0010183F8581036
:1002400093F83C1001F0F00183F83C1093F83C1057
:1002500041F0070183F83C1093F8591041F0010177
:1002600083F8591093F83C1001F00F0183F83C100B
:1002700093F83C1041F0700183F83C102E4B402164
:10028000C3F8A810916941F0010191615A685207C1
:10029000FCD44FF082431A7842F001021A704FF0FA
:1002A00082439B78DB07FAD4244B1968C1F34412CC
:1002B000C1F3822311F01F0103D01F2908BF0921B8
:1002C00000E009211AB11F2A08BF192200E01922F3
:1002D0001BB1072B08BF062300E006231B0342EADD
:1002E000811203F4E0431A434FF0824392B21A851D
:1002F000DA78134842F00302DA70DA7842F00C023E
:10030000DA701A786FF3C7121A701A7842F0040282
:100310001A7058621A896FF383021A811A8922F0BF
:1003200001021204120C1A810021802201F059B935
:100330000008004000800041001C00408400800054
:10034000940100202DE9F04107461E485C011E463D
:1003500003191546D3F81480C8F3027808F103088E
:1003600032FA08F803F11003804604D05A6842F0CC
:1003700000425A6009E0301C134B18BF012003EB08
:100380008013184601F024F9014608EB04000836F2
:100390000161436965F30D03436143696FF39B3367
:1003A000436107EB46130222DA715A7942F0800268
:1003B0005A7107EB4613DB799B07FAD52846BDE84F
:1003C000F08100BF9401002014010020F8B51B4EFD
:1003D00033780546144603F0FF0793B9184B194AC2
:1003E0001A645A6C67F30D025A645A6C67F39B32B5
:1003F0005A6490F8443143F0400380F844310123BB
:10040000337095F8473113F0010313D00C4B5A6C3D
:10041000C2F30D02A2423CBF5C6CC4F30D0408465B
:100420002246084901F0D4F8012385F8473100231A
:10043000337000E01C462046F8BD00BF7A00002063
:1004400094010020D400002090F8053111B143F050
:10045000200301E043F0100380F8053170470000ED
:10046000094B5A696FF30D025A61022380F8073174
:1004700090F8053143F0800380F8053190F807319A
:100480009B07FBD5704700BF9401002061F07F01FE
:10049000C9B281727047000010B5114B114C032294
:1004A00080F84021596C62F31E715964402180F834
:1004B00045111C64302480F820415C6B62F31E748B
:1004C0005C638022084C80F824211C6380F8601152
:1004D000596F6FF31E71596780F8642110BD00BF1A
:1004E00094010020D4000020540100202D4B1A88D4
:1004F00092B21A802C4B42F20E029A821946CA68B6
:10050000294BD007FBD51A7C6FF302021A7403F54E
:1005100000631A7842F001021A705A68D207FCD4BC
:10052000224A40F20511D1625A6812F02002FBD132
:100530001E4B4FF482711962A3F540631A771C4A6F
:100540009A6293F82C2002F0100202F0FF01002AB8
:10055000F7D1184B83F82010164B93F82C20500736
:10056000FAD41A7F42F002021A7793F82C10114A3B
:100570008907FAD4536A53620E4B93F82C20100764
:10058000FAD4982283F820201A69D105FCD5074BAC
:1005900040F606321A625A685207FCD4064B012212
:1005A0005A7170470040004100140040001C004098
:1005B0000000010400100040000800400EBEFEE7ED
:1005C0000DBEFEE70DBEFEE70DBEFEE70DBEFEE76B
:1005D00005BEFEE702BEFEE7104B114A9A4210B577
:1005E000184604D10F4B104A93420FD10BE00F4B2A
:1005F00093421C46F6D00023D1188142F2D2E15832
:10060000D1500433F8E700F013F805E09342FAD232
:10061000002143F8041BF9E7FEE700BF5C0000205F
:10062000000000205C000020A0030020F018000063
:1006300038B5304B1A68013218461DD013F07F01CF
:100640001AD12D4A127812F001042C4A09D11568EA
:100650002B498D4201D114600EE011602949013906
:10066000FDD11160026882F30888274A23F07F03D6
:100670009360204B5B681847FFF738FF62B600F0C5
:10068000D3FD00F051F8214B4FF400129A60402244
:10069000C3F88820C3F898204FF000629A609A61EE
:1006A0001B4B40F2E7325A60174AC02182F82310F0
:1006B00000229A60072204461A60A36820469847E1
:1006C000144B08B101221A701B782BB1002000F0E6
:1006D0009FFA00F027FBFCE70E4B1B78002BECD1B8
:1006E00000F01AFE0028E8D0012000F091FA00F096
:1006F00019FBFCE700400000000C0040FCFF02205A
:10070000EF6916F0808D5B0000ED00E00080004195
:1007100010E000E07B00002008B5FFF7BBFCBDE85F
:10072000084000F0DDBA000010B5064C4FF08243DF
:100730002360FFF779FD20462168FFF763FD20461F
:1007400010BD00BF1402002070B50546C0B00846B9
:1007500016460C4600F04DFF4000032302308DF892
:1007600001308DF8000076080123E21812F8011C10
:100770005A0031B9284669460023FFF7E3FD40B02F
:1007800070BDB342F6DA2DF802100133EDE7000038
:10079000F7B5954A04681378944F954ED17892F83E
:1007A00005C0054693484FF0100E84F807E103702A
:1007B00053783B709378338033889BB243EA0123AC
:1007C00033808D4B11791980198889B241EA0C2147
:1007D00019808A4992F806C0A1F800C0B1F800C09B
:1007E000D2791FFA8CFC4CEA02220A80402284F85B
:1007F00004213F78027840F2023042EA0722824226
:10080000184600F0C9801EDCB2F5807F00F07E81C2
:1008100009DC812A00F09780822A00F09A80802AE1
:1008200040F074818FE0B2F5817F00F0F780C0F274
:100830006981B2F5407F00F0698140F201339A424C
:1008400000F0608162E1B2F5106F6FD012DCB2F59A
:10085000D06F23D0B2F5086F71D0B2F5A06F40F021
:1008600055812046FFF7FCFD3188286889B2FFF7E3
:100870000DFE4FE142F221039A4200F0438140F322
:10088000458142F2A1139A4200F02E8142F22123C7
:100890009A4240F03B8133886B7133E13388C3F374
:1008A0000723012B0AD10B8828689BB2122B98BF13
:1008B0000A88534994BF92B212221FE13388C3F3CE
:1008C0000723022B0AD10B8828689BB2432B98BFC1
:1008D0000A884C4994BF92B243220FE13388C3F394
:1008E0000723032B40F012813388DBB2012B16D093
:1008F00006D3022B40F00A810A882868424911E099
:10090000424B18680B8801909BB2042B98BF3B4B5D
:10091000286896BF1A88042292B201A9EEE00A88DC
:1009200028683B49D2B2FFF70FFFF3E033882B7101
:100930002046FFF795FD2046FFF7AEFDEAE0286868
:10094000291D0122DAE03349286800230B800222A6
:10095000D5E0304A0021118018882F4900F050005E
:100960000870188800F00F001880188880B20328DB
:1009700000F2CC8009781B889BB2083304EB431447
:10098000A37911B1C3F3401301E0C3F30013138043
:10099000286820490222B1E019881F4A89B221F053
:1009A0007F01C9B21170198801F00F0119803188D7
:1009B00089B2002940F0AA80198889B2002900F084
:1009C000A580198889B2032900F2A08012781B88BB
:1009D0009BB2083304EB431312B120225A7191E009
:1009E00083F805E08EE000BF940000208600002020
:1009F0007C00002083000020800000207E0000207A
:100A000040160000040000202C1600001C160000F8
:100A10002016000084000020820000201A883E4B2F
:100A200092B222F07F02D2B21A70028802F00F0254
:100A30000280328892B2002A68D1028892B2002ADB
:100A400064D0028892B2032A60D81B782BB3038843
:100A50009BB2083304EB43139B799D0652D5028861
:100A60002E4B92B2083204EB4212202111710288FF
:100A700092B2083204EB4212D279500642D51A885B
:100A800092B2083204EB42124021D1711B889BB212
:100A9000083304EB4313022224E003889BB208339B
:100AA00004EB43139B79D9062CD502881B4B92B2D9
:100AB000083204EB421210211171028892B20832FE
:100AC00004EB4212D27992061CD51A8892B20832EF
:100AD00004EB42122021D1711B889BB2083304EB36
:100AE000431301221A710DE00B8828689BB2082B72
:100AF00098BF0A880A4994BF92B208220023FFF7E0
:100B000021FC07E02046FFF7ABFC03E02046012173
:100B1000FFF79AFC03B0F0BD8200002080000020A7
:100B20004800002007B5064B02A9012241F8040D38
:100B300018681346FFF706FC012003B05DF804FBBC
:100B40001402002007B5064B0DF1070118680122B9
:100B5000FFF73CFC9DF8070003B05DF804FB00BF05
:100B60001402002010B5054C2046FFF70FFB20B102
:100B7000236893F8470100F0010010BD1402002023
:100B800010B5054A0C460346194610680123224653
:100B9000FFF7D8FB204610BD1402002070B5074CAB
:100BA000064620460D46FFF7F1FA30B1206831467F
:100BB0002A46BDE87040FFF709BC70BD1402002052
:100BC00070B5054608480E46FFF7E0FA58B13446BE
:100BD00044B1054B294622461868FFF7F7FB241A53
:100BE0000544F5E7304670BD1402002008B5034601
:100BF000084611469847044B4FF000625A61034B78
:100C000064221A8008BD00BF0080004190000020CF
:100C1000012805D1054B064A1A60064B187070472B
:100C200010B9024B044A1A60704700BF84020020CA
:100C30007416000092000020C01600001FB50A467E
:100C40001E490978034681B3042A01D1006803E0F4
:100C5000022A0CBF00881878520004A91144A1F19F
:100C60000C03D4430B390C44A3420AD000F00F010B
:100C7000092994BF41F03001373159700009013B17
:100C8000F2E730238DF8043078238DF8053004AB7B
:100C900013440A2103F80A1C0D2103F8091C084B10
:100CA0001B6801A9D868043203E005490968C868CF
:100CB0001946FFF79BFF04B010BD00BF8C00002059
:100CC0008402002072B6EFF30882044B1A600368B6
:100CD00083F3088843681847704700BF88020020E4
:100CE0000D4B1A8892B242B11A88013A92B21A8018
:100CF0001AB90A4B4FF000629A61094B1A8892B2F6
:100D000042B11A88013A92B21A801AB9034B4022B2
:100D1000C3F89820704700BF900000200080004179
:100D20008E0000202DE9F04F964D974E0FCD8FB0DD
:100D300006AC0FC495E80F0084E80F00934A94496D
:100D400093680EA8C3F3024300EB83038A4653F86B
:100D5000203C0B6090688F4A80B210608E4A4343FB
:100D60001360002333608D4B7A2018708C4C8D48B3
:100D7000236840211B69984730B18B4B4022C3F850
:100D800094208A4B64221A80894D8A4B854A8A4F67
:100D90002A60002218603A609B46DFF81C82DBF86C
:100DA0000030D8F800209A42E0D22A681278FF2A50
:100DB00000F01082232A40F0EB81DFF82C9299F8A2
:100DC00000202AB122687D49D0680222FFF70EFF79
:100DD00072490A78532A3FD1D8F80020DBF8003056
:100DE000DFF8E08193421CD973482968DFF8FC9151
:100DF00001320260D8F800009A1A824228BF0246E7
:100E000001313068C9F80020296000F0E1FBD9F811
:100E100000303A681A443A602A681A442A60684ADC
:100E200013703B68D8F80010013B3B602B68013B16
:100E30002B60634B1B788B420CD22268306892691E
:100E4000C91A904730B1584B4022C3F89420574BF1
:100E500064221A8000BF8BE1522A0CD1594A2368C0
:100E600011685B69306898474F4B4FF000625A61D8
:100E70006422554B0BE04F2A04D1524A3368126862
:100E80001A7075E1482A04D14E4A336812681A80F4
:100E90006EE1572A04D14B4A336812681A6067E141
:100EA0006F2A02D13068012106E0682A07D1336831
:100EB00044481B8803600221FFF7C0FE58E1772AEF
:100EC00005D133683F481B6803600421F4E7472AD3
:100ED00012D13C4B1868FFF7F5FE3C4B1B6883F3BF
:100EE000088862B63A4B1B78002B00F041812368DA
:100EF00006201B6898473BE1542A03D1012389F857
:100F0000003098E04E2A0CD199F800302BB92368B4
:100F10002A49D8680222FFF769FE002389F80030C9
:100F200026E1562A40F08C8022682A49D0680122A6
:100F3000FFF75CFE22682849D0680322FFF756FEBF
:100F400022682649D0680122FFF750FE2268244912
:100F5000D0680D22FFF74AFE22682049D06801229E
:100F6000FFF744FE1F4A2A600022C8F800202A68C2
:100F7000511C29601378002B3AD00F4B1A680132AC
:100F80001A60F4E75416000080020020004000417F
:100F90003C02002034020020300200202C020020FD
:100FA0008402002040020020008000418E000020CA
:100FB000280200202402002038020020B41600007D
:100FC000200200208C0200209000002088020020D7
:100FD0009200002090160000B91600009216000042
:100FE000DC160000941600008C0000209002002007
:100FF00022687C49D068D8F800200193FFF7F6FDFD
:1010000022687949D0680122FFF7F0FD019BC8F8FA
:101010000030764A764B1A602B685A1C2A601B787F
:101020001BB1744B1A680132F5E723686F49D86821
:101030003A68FFF7DBFD23686F49D868022295E024
:10104000582A6E4B1DD16E48DAF800201B680168E3
:1010500010018B4211D26B4AB2F812E01EF0010F60
:10106000F9D04AF2015E5361A2F804E0B2F812E04E
:101070001EF0010FFAD00344EBE723686249D868F9
:1010800073E0592A38D11A68604B12B932681A6075
:101090002EE0D3F800E05B4B3168188880B29208EC
:1010A00018802AB3574B4AF215509880588AC007C7
:1010B000FCD50023DAF80000B3EB900F06D35148BB
:1010C0004AF2035C4161A0F804C007E09342F6D005
:1010D0005EF8230041F823000133EBE7B0F812C0BB
:1010E0001CF0010FFAD0980001448644D21AD8E7C8
:1010F00023684749D86838E05A2A39D14FF0000CA4
:1011000032681B68E0469C4510D012F80C00039230
:1011100041460193CDF808C000F01EF9DDF808C083
:10112000019B039A80460CF1010CECE723683949D6
:10113000D8680122FFF75AFD072308F00F02092A99
:1011400003F110006946CCBF3732303213F1FF3360
:101150004FEA18184254F0D2236804A9D86808222C
:10116000FFF744FD23682C49D8680322FFF73EFDB2
:101170002A497A230B70214B00221A60284B1B78D6
:1011800043B323682749D8680122FFF72FFD21E0E8
:10119000A2F13001CBB2092B184B03D81A6841EAEF
:1011A000021107E0A2F14101052905D8373A196873
:1011B00042EA011119600DE0A2F16101052901D88F
:1011C000573AF4E72C2A13BF14481A6832600270A9
:1011D00000221A603B6801333B602B6801332B60AF
:1011E000DBE500BF9416000092160000A016000078
:1011F0002802002038020020B41600008C020020D3
:101200003002002000400041A916000088000020A4
:10121000AD160000B1160000B31600002C0200202D
:101220008C000020B716000008B5234B234840224D
:10123000C3F89C204322C3F88C20A3F5A0534FF29F
:101240002A615A6942F480525A611D4B93F84B202F
:1012500042F0010283F84B2093F8352002F00F0290
:1012600083F8352093F8352042F0200283F83520AA
:1012700093F84A2042F0010283F84A2093F835207F
:1012800002F0F00283F8352093F8352042F0020294
:1012900083F835204FF44412FEF730FF094A00234B
:1012A0001370094A1370094A1370094A1370094AE6
:1012B0001370094A137008BD001C00400030004044
:1012C00000800041940200201B03002095020020B2
:1012D000980200201C0300201903002008B5C1B2A9
:1012E0000248FEF739FF012008BD00BF0030004072
:1012F000024B187EC0F38000704700BF00300040F2
:1013000008B5FFF7F5FF0028FBD00248FEF72AFFDB
:1013100008BD00BF0030004008B5FFF7E9FF28B165
:10132000FFF7EEFFB0F123035842584108BD70B5F6
:1013300004460D464618B44204D014F8010BFFF7DA
:10134000CDFFF8E7284670BD10B50446FFF7D8FF7B
:101350002070012010BD000080EA1120034B33F8FB
:10136000103083EA012080B2704700BFEA16000007
:101370002DE9F041002405460F462646A3B2BB42A4
:101380001FD2FFF7BDFF124B1B785FFA80F8DBB965
:1013900031464046FFF7E0FF0E4B1A88064612B969
:1013A0000D4A12784AB1802F05F1010285F80080BC
:1013B00004D119880139198000E02A460134154604
:1013C000DCE73046BDE8F0810120BDE8F08100BFD8
:1013D00019030020960200201A0300202DE9F74F80
:1013E0003A4A3B4F0023814613700C46924609B996
:1013F000012301E0374A11803B7063061CBF803433
:1014000024F07F04FFF77CFF9AF800302F4E43B1A1
:1014100000253570FFF774FF3278C0B212B1357015
:101420004FE0C0B2432803D0712849D01528E9D134
:1014300001260120FFF752FF3046FFF74FFFF04330
:10144000C0B2FFF74BFFCB4680254FF00008214A82
:10145000118809B93B782BB101399BF80030118014
:101460000BF1010B18460193FFF738FF019B414632
:101470001846FFF771FF013D8046E8D1C0F3072011
:10148000FFF72CFF5FFA88F0FFF728FFFFF738FF20
:101490009AF8003013B10D4B1D7012E0C0B206284F
:1014A00004D10136F6B2803C09F18009002CC0D18C
:1014B0000420FFF713FF0125FFF722FF3C7000E037
:1014C0000025284603B0BDE8F08F00BF19030020B7
:1014D0001A030020960200202DE9F74F384A394FB1
:1014E000002306461370914609B9012301E0364AEC
:1014F00011803B7064244320FFF7F0FE334DFFF76B
:10150000F7FE10B915B1013DF9E715B9013CF2D16B
:1015100052E00124FFF7F4FE99F80030DFF8A080D4
:101520001BB1002488F8004046E0C5B2012D05D06B
:10153000042D3ED10620FFF7D1FE3AE0022101A89A
:10154000FFF716FF30468021FFF712FF98F80030B2
:101550008246E3B9FFF7D4FE00021FFA80FBFFF7D3
:10156000CFFE98F800305844012B1FFA80FB0ED0B4
:10157000D34509D19DF80430A34205D1E3439DF83A
:101580000520DBB29A4204D01820FFF7A7FE002501
:1015900002E00620FFF7A2FE99F800301BB1084BCD
:1015A00000241C7008E0012D03D10134E4B2803620
:1015B000B0E700233B700124204603B0BDE8F08F64
:1015C000190300201A0300209602002000350C00A9
:1015D00010B50023934203D0CC5CC4540133F9E727
:1015E00010BD02440346934202D003F8011BFAE700
:1015F0007047034613F8012B002AFBD1181A013853
:1016000070470000F8B500BFF8BC08BC9E467047A4
:10161000F8B500BFF8BC08BC9E4670470403090437
:1016200041726475696E6F204C4C4300456E746165
:101630006C6F6E20436F72652041204D34000000B6
:1016400012010002020000406822010000020102B3
:101650000001000008000000100000002000000051
:1016600040000000800000000001000000020000B7
:1016700000040000DD12000001130000F112000060
:101680002F13000049130000DD130000D9140000DF
:10169000760020004A756C2032392032303230001A
:1016A00032313A30373A313200580A0D00590A0DBA
:1016B000005A00230A0D003E00322E3000000000C8
:1016C000250B0000450B0000650B0000810B00009E
:1016D0009D0B0000810B0000C10B00005B41726498
:1016E00075696E6F3A58595A5D000000211042200A
:1016F00063308440A550C660E770088129914AA1F3
:101700006BB18CC1ADD1CEE1EFF131121002733269
:101710005222B5529442F772D662399318837BB342
:101720005AA3BDD39CC3FFF3DEE3622443342004F9
:101730000114E664C774A44485546AA54BB5288592
:101740000995EEE5CFF5ACC58DD553367226111649
:101750003006D776F6669556B4465BB77AA71997E2
:101760003887DFF7FEE79DD7BCC7C448E5588668D1
:10177000A7784008611802282338CCC9EDD98EE932
:10178000AFF9488969990AA92BB9F55AD44AB77AA9
:10179000966A711A500A333A122AFDDBDCCBBFFB82
:1017A0009EEB799B588B3BBB1AABA66C877CE44CB9
:1017B000C55C222C033C600C411CAEED8FFDECCDD2
:1017C000CDDD2AAD0BBD688D499D977EB66ED55E89
:1017D000F44E133E322E511E700E9FFFBEEFDDDF22
:1017E000FCCF1BBF3AAF599F788F8891A981CAB1AE
:1017F000EBA10CD12DC14EF16FE18010A100C230E0
:10180000E3200450254046706760B9839893FBA39A
:10181000DAB33DC31CD37FE35EF3B1029012F3222F
:10182000D2323542145277625672EAB5CBA5A895EA
:1018300089856EF54FE52CD50DC5E234C324A0147F
:1018400081046674476424540544DBA7FAB799877A
:10185000B8975FE77EF71DC73CD7D326F2369106CF
:10186000B01657667676154634564CD96DC90EF9C2
:101870002FE9C899E9898AB9ABA94458654806781F
:101880002768C018E1088238A3287DCB5CDB3FEBDA
:101890001EFBF98BD89BBBAB9ABB754A545A376A6F
:1018A000167AF10AD01AB32A923A2EFD0FED6CDDAA
:1018B0004DCDAABD8BADE89DC98D267C076C645CBF
:1018C000454CA23C832CE01CC10C1FEF3EFF5DCFBA
:1018D0007CDF9BAFBABFD98FF89F176E367E554E0F
:1018E000745E932EB23ED10EF01E00000000000088
:1018F00001140000090243000201008032090400C3
:101900000001020200000524001001042402000569
:10191000240600010524010001070583030800FFD8
:1019200009040100020A00000007058102400000CE
:10193000070502024000000000C20100000008008C
:0C194000650000004100000000000000F5
:04000003000005D91B
:00000001FF
